:020000040800F2
:10000000A8060120690200087102000873020008B6
:10001000750200087702000879020008000000005D
:100020000000000000000000000000007B0200084B
:100030007D020008000000007F0200088102000825
:10004000830200088302000883020008830200087C
:1000500083020008830200082503000883020008C9
:10006000830200088302000883020008830200085C
:10007000830200088302000883020008830200084C
:10008000830200088302000883020008830200083C
:10009000830200088302000883020008830200082C
:1000A000830200088302000883020008830200081C
:1000B000830200088302000883020008830200080C
:1000C00083020008830200088302000883020008FC
:1000D00083020008830200088302000883020008EC
:1000E00083020008830200088302000883020008DC
:1000F00083020008830200088302000883020008CC
:1001000083020008830200088302000883020008BB
:1001100083020008830200088302000883020008AB
:10012000830200088302000883020008830200089B
:10013000830200088302000883020008830200088B
:10014000830200088302000883020008830200087B
:10015000830200088302000883020008830200086B
:10016000830200088302000883020008830200085B
:1001700083020008830200088302000800000000D8
:10018000830200088302000883020008830200083B
:10019000830200088302000883020008830200082B
:1001A000830200088302000883020008830200081B
:1001B000830200088302000883020008830200080B
:1001C000830200088302000800F002F800F03CF807
:1001D0000AA090E8000C82448344AAF10107DA45A2
:1001E00001D100F031F8AFF2090EBAE80F0013F0B8
:1001F000010F18BFFB1A43F0010318475402000017
:1002000074020000103A24BF78C878C1FAD85207A7
:1002100024BF30C830C144BF04680C607047000080
:100220000023002400250026103A28BF78C1FBD8FF
:10023000520728BF30C148BF0B6070471FB500F0A0
:1002400001F91FBD10B510BD00F031F81146FFF7E0
:10025000F5FF00F091F800F04FF803B4FFF7F2FF5C
:1002600003BC00F057F800000948804709480047E0
:10027000FEE7FEE7FEE7FEE7FEE7FEE7FEE7FEE756
:10028000FEE7FEE704480549054A064B70470000B3
:100290005D030008C9010008A8000120A80601208C
:1002A000A8020120A80201207047704770477546D8
:1002B00000F02CF8AE4605006946534620F00700D2
:1002C000854618B020B5FFF7DDFFBDE820404FF0B0
:1002D00000064FF000074FF000084FF0000B21F030
:1002E0000701AC46ACE8C009ACE8C009ACE8C009FD
:1002F000ACE8C0098D46704710B50446AFF30080E6
:100300002046BDE81040FFF7A8BF00000048704736
:100310004400012001491820ABBEFEE72600020080
:10032000704700000B48006840F001000949086070
:1003300009480068401C0849086008460068102801
:1003400007D10020086008460068002801DA0F2065
:1003500008607047143C01404000012005480068D7
:1003600040F47000034908604FF000600149803993
:100370000860704788ED00E02B48006840F480403A
:100380002949086028481438006840F022002649AE
:100390001439086041F25550244908600020091DB5
:1003A000086041F25550091D0860091D0860204889
:1003B00000681F4908601E480C30006840F00200C9
:1003C0001B490C3108601B48006840F005001949C2
:1003D00008601948006840F0010017490860164895
:1003E0000C30006840F0010013490C310860062011
:1003F00000280DDB00BF00BF00F01F02012191406B
:100400004209920002F1E022C2F8001100BF00BFD1
:1004100000BF07E009480A49096850F8210003496C
:1004200014310860F6E7000044380240000402403E
:100430000014024008380140003C01400000012047
:10044000400001204FF04070E1EE100A70470000BC
:1004500070040008000001204400000004020008AD
:10046000B4040008440001206406000020020008D3
:10047000010000004F000000120000000600000014
:100480004C00000024000000200000000F000000CD
:1004900000000000040000000800000060000000F0
:1004A0003100000042000000300000003800000071
:0404B0000000000048
:040000050800026984
:00000001FF
